{
  "_format": "hh3-artifact-1",
  "contractName": "CasinoGame",
  "sourceName": "contracts/CasinoGame.sol",
  "abi": [
    {
      "inputs": [
        {
          "internalType": "address",
          "name": "_tokenAddress",
          "type": "address"
        },
        {
          "internalType": "address",
          "name": "_oracleAddress",
          "type": "address"
        },
        {
          "internalType": "address",
          "name": "_treasuryAddress",
          "type": "address"
        }
      ],
      "stateMutability": "nonpayable",
      "type": "constructor"
    },
    {
      "inputs": [],
      "name": "ECDSAInvalidSignature",
      "type": "error"
    },
    {
      "inputs": [
        {
          "internalType": "uint256",
          "name": "length",
          "type": "uint256"
        }
      ],
      "name": "ECDSAInvalidSignatureLength",
      "type": "error"
    },
    {
      "inputs": [
        {
          "internalType": "bytes32",
          "name": "s",
          "type": "bytes32"
        }
      ],
      "name": "ECDSAInvalidSignatureS",
      "type": "error"
    },
    {
      "inputs": [
        {
          "internalType": "address",
          "name": "owner",
          "type": "address"
        }
      ],
      "name": "OwnableInvalidOwner",
      "type": "error"
    },
    {
      "inputs": [
        {
          "internalType": "address",
          "name": "account",
          "type": "address"
        }
      ],
      "name": "OwnableUnauthorizedAccount",
      "type": "error"
    },
    {
      "inputs": [],
      "name": "ReentrancyGuardReentrantCall",
      "type": "error"
    },
    {
      "anonymous": false,
      "inputs": [
        {
          "indexed": true,
          "internalType": "address",
          "name": "buyer",
          "type": "address"
        },
        {
          "indexed": false,
          "internalType": "uint256",
          "name": "ethAmount",
          "type": "uint256"
        },
        {
          "indexed": false,
          "internalType": "uint256",
          "name": "chipsAmount",
          "type": "uint256"
        },
        {
          "indexed": false,
          "internalType": "uint256",
          "name": "timestamp",
          "type": "uint256"
        }
      ],
      "name": "ChipsPurchased",
      "type": "event"
    },
    {
      "anonymous": false,
      "inputs": [
        {
          "indexed": true,
          "internalType": "address",
          "name": "seller",
          "type": "address"
        },
        {
          "indexed": false,
          "internalType": "uint256",
          "name": "chipsAmount",
          "type": "uint256"
        },
        {
          "indexed": false,
          "internalType": "uint256",
          "name": "ethAmount",
          "type": "uint256"
        },
        {
          "indexed": false,
          "internalType": "uint256",
          "name": "fee",
          "type": "uint256"
        },
        {
          "indexed": false,
          "internalType": "uint256",
          "name": "timestamp",
          "type": "uint256"
        }
      ],
      "name": "ChipsSold",
      "type": "event"
    },
    {
      "anonymous": false,
      "inputs": [
        {
          "indexed": true,
          "internalType": "address",
          "name": "player",
          "type": "address"
        },
        {
          "indexed": false,
          "internalType": "bool",
          "name": "won",
          "type": "bool"
        },
        {
          "indexed": false,
          "internalType": "uint256",
          "name": "amountWon",
          "type": "uint256"
        },
        {
          "indexed": false,
          "internalType": "uint256",
          "name": "streak",
          "type": "uint256"
        },
        {
          "indexed": false,
          "internalType": "uint256",
          "name": "karmaPoolReleased",
          "type": "uint256"
        },
        {
          "indexed": false,
          "internalType": "uint256",
          "name": "timestamp",
          "type": "uint256"
        }
      ],
      "name": "GameResult",
      "type": "event"
    },
    {
      "anonymous": false,
      "inputs": [
        {
          "indexed": true,
          "internalType": "address",
          "name": "previousOwner",
          "type": "address"
        },
        {
          "indexed": true,
          "internalType": "address",
          "name": "newOwner",
          "type": "address"
        }
      ],
      "name": "OwnershipTransferred",
      "type": "event"
    },
    {
      "anonymous": false,
      "inputs": [
        {
          "indexed": true,
          "internalType": "address",
          "name": "to",
          "type": "address"
        },
        {
          "indexed": false,
          "internalType": "uint256",
          "name": "amount",
          "type": "uint256"
        },
        {
          "indexed": false,
          "internalType": "uint256",
          "name": "timestamp",
          "type": "uint256"
        }
      ],
      "name": "TreasuryWithdrawal",
      "type": "event"
    },
    {
      "inputs": [],
      "name": "buyChips",
      "outputs": [],
      "stateMutability": "payable",
      "type": "function"
    },
    {
      "inputs": [],
      "name": "casinoToken",
      "outputs": [
        {
          "internalType": "contract IERC20",
          "name": "",
          "type": "address"
        }
      ],
      "stateMutability": "view",
      "type": "function"
    },
    {
      "inputs": [],
      "name": "chipsPerEth",
      "outputs": [
        {
          "internalType": "uint256",
          "name": "",
          "type": "uint256"
        }
      ],
      "stateMutability": "view",
      "type": "function"
    },
    {
      "inputs": [
        {
          "internalType": "bool",
          "name": "choiceHeads",
          "type": "bool"
        },
        {
          "internalType": "uint256",
          "name": "betAmount",
          "type": "uint256"
        },
        {
          "internalType": "uint256",
          "name": "currentStreak",
          "type": "uint256"
        },
        {
          "internalType": "uint256",
          "name": "currentKarmaPool",
          "type": "uint256"
        },
        {
          "internalType": "bool",
          "name": "isKarmaReady",
          "type": "bool"
        },
        {
          "internalType": "bytes",
          "name": "signature",
          "type": "bytes"
        }
      ],
      "name": "flip",
      "outputs": [],
      "stateMutability": "nonpayable",
      "type": "function"
    },
    {
      "inputs": [],
      "name": "getChipsBalance",
      "outputs": [
        {
          "internalType": "uint256",
          "name": "",
          "type": "uint256"
        }
      ],
      "stateMutability": "view",
      "type": "function"
    },
    {
      "inputs": [
        {
          "internalType": "uint256",
          "name": "ethAmount",
          "type": "uint256"
        }
      ],
      "name": "getChipsForEth",
      "outputs": [
        {
          "internalType": "uint256",
          "name": "",
          "type": "uint256"
        }
      ],
      "stateMutability": "view",
      "type": "function"
    },
    {
      "inputs": [],
      "name": "getEthBalance",
      "outputs": [
        {
          "internalType": "uint256",
          "name": "",
          "type": "uint256"
        }
      ],
      "stateMutability": "view",
      "type": "function"
    },
    {
      "inputs": [
        {
          "internalType": "uint256",
          "name": "chipsAmount",
          "type": "uint256"
        }
      ],
      "name": "getEthForChips",
      "outputs": [
        {
          "internalType": "uint256",
          "name": "ethAmount",
          "type": "uint256"
        },
        {
          "internalType": "uint256",
          "name": "fee",
          "type": "uint256"
        }
      ],
      "stateMutability": "view",
      "type": "function"
    },
    {
      "inputs": [
        {
          "internalType": "address",
          "name": "",
          "type": "address"
        }
      ],
      "name": "nonces",
      "outputs": [
        {
          "internalType": "uint256",
          "name": "",
          "type": "uint256"
        }
      ],
      "stateMutability": "view",
      "type": "function"
    },
    {
      "inputs": [],
      "name": "oracleAddress",
      "outputs": [
        {
          "internalType": "address",
          "name": "",
          "type": "address"
        }
      ],
      "stateMutability": "view",
      "type": "function"
    },
    {
      "inputs": [],
      "name": "owner",
      "outputs": [
        {
          "internalType": "address",
          "name": "",
          "type": "address"
        }
      ],
      "stateMutability": "view",
      "type": "function"
    },
    {
      "inputs": [],
      "name": "renounceOwnership",
      "outputs": [],
      "stateMutability": "nonpayable",
      "type": "function"
    },
    {
      "inputs": [
        {
          "internalType": "uint256",
          "name": "chipsAmount",
          "type": "uint256"
        }
      ],
      "name": "sellChips",
      "outputs": [],
      "stateMutability": "nonpayable",
      "type": "function"
    },
    {
      "inputs": [],
      "name": "sellFeeBps",
      "outputs": [
        {
          "internalType": "uint256",
          "name": "",
          "type": "uint256"
        }
      ],
      "stateMutability": "view",
      "type": "function"
    },
    {
      "inputs": [
        {
          "internalType": "uint256",
          "name": "_newRate",
          "type": "uint256"
        }
      ],
      "name": "setChipsPerEth",
      "outputs": [],
      "stateMutability": "nonpayable",
      "type": "function"
    },
    {
      "inputs": [
        {
          "internalType": "address",
          "name": "_newOracle",
          "type": "address"
        }
      ],
      "name": "setOracleAddress",
      "outputs": [],
      "stateMutability": "nonpayable",
      "type": "function"
    },
    {
      "inputs": [
        {
          "internalType": "uint256",
          "name": "_newFeeBps",
          "type": "uint256"
        }
      ],
      "name": "setSellFeeBps",
      "outputs": [],
      "stateMutability": "nonpayable",
      "type": "function"
    },
    {
      "inputs": [
        {
          "internalType": "address",
          "name": "_newTreasury",
          "type": "address"
        }
      ],
      "name": "setTreasuryAddress",
      "outputs": [],
      "stateMutability": "nonpayable",
      "type": "function"
    },
    {
      "inputs": [
        {
          "internalType": "address",
          "name": "newOwner",
          "type": "address"
        }
      ],
      "name": "transferOwnership",
      "outputs": [],
      "stateMutability": "nonpayable",
      "type": "function"
    },
    {
      "inputs": [],
      "name": "treasuryAddress",
      "outputs": [
        {
          "internalType": "address",
          "name": "",
          "type": "address"
        }
      ],
      "stateMutability": "view",
      "type": "function"
    },
    {
      "inputs": [],
      "name": "withdrawAllToTreasury",
      "outputs": [],
      "stateMutability": "nonpayable",
      "type": "function"
    },
    {
      "inputs": [
        {
          "internalType": "uint256",
          "name": "amount",
          "type": "uint256"
        }
      ],
      "name": "withdrawBankroll",
      "outputs": [],
      "stateMutability": "nonpayable",
      "type": "function"
    },
    {
      "inputs": [
        {
          "internalType": "uint256",
          "name": "amount",
          "type": "uint256"
        }
      ],
      "name": "withdrawBankrollToTreasury",
      "outputs": [],
      "stateMutability": "nonpayable",
      "type": "function"
    },
    {
      "inputs": [
        {
          "internalType": "uint256",
          "name": "amount",
          "type": "uint256"
        }
      ],
      "name": "withdrawToTreasury",
      "outputs": [],
      "stateMutability": "nonpayable",
      "type": "function"
    },
    {
      "stateMutability": "payable",
      "type": "receive"
    }
  ],
  "bytecode": "0x60806040526127106005556101f460065534801561001b575f5ffd5b50604051611a41380380611a4183398101604081905261003a91610119565b338061005f57604051631e4fbdf760e01b81525f600482015260240160405180910390fd5b610068816100af565b5060018055600280546001600160a01b039485166001600160a01b031991821617909155600380549385169382169390931790925560048054919093169116179055610159565b5f80546001600160a01b038381166001600160a01b0319831681178455604051919092169283917f8be0079c531659141344cd1fd0a4f28419497f9722a3daafe3b4186f6b6457e09190a35050565b80516001600160a01b0381168114610114575f5ffd5b919050565b5f5f5f6060848603121561012b575f5ffd5b610134846100fe565b9250610142602085016100fe565b9150610150604085016100fe565b90509250925092565b6118db806101665f395ff3fe60806040526004361061014a575f3560e01c80637ecebe00116100b3578063b08088701161006d578063b080887014610380578063bd5955811461039f578063c5f956af146103b3578063d14fcf5a146103d2578063da53dd11146103f1578063f2fde38b14610410575f5ffd5b80637ecebe00146102df5780638da5cb5b1461030a57806399932235146103265780639c3930ad1461033a578063a89ae4ba14610342578063abae70c514610361575f5ffd5b806360c635541161010457806360c635541461021a5780636605bfda1461024e57806370ed0ada1461026d578063715018a61461027f57806371d053751461029357806379b2602b146102ca575f5ffd5b806319c767001461015557806323cbe1f31461017657806334119d151461019e5780634c69c00f146101bd5780634c91cc6d146101dc5780634fd157c8146101fb575f5ffd5b3661015157005b5f5ffd5b348015610160575f5ffd5b5061017461016f3660046116bc565b61042f565b005b348015610181575f5ffd5b5061018b60065481565b6040519081526020015b60405180910390f35b3480156101a9575f5ffd5b506101746101b83660046116bc565b6104ad565b3480156101c8575f5ffd5b506101746101d73660046116d3565b610509565b3480156101e7575f5ffd5b506101746101f63660046116bc565b610533565b348015610206575f5ffd5b5061018b6102153660046116bc565b610604565b348015610225575f5ffd5b506102396102343660046116bc565b610619565b60408051928352602083019190915201610195565b348015610259575f5ffd5b506101746102683660046116d3565b61065b565b348015610278575f5ffd5b504761018b565b34801561028a575f5ffd5b506101746106db565b34801561029e575f5ffd5b506002546102b2906001600160a01b031681565b6040516001600160a01b039091168152602001610195565b3480156102d5575f5ffd5b5061018b60055481565b3480156102ea575f5ffd5b5061018b6102f93660046116d3565b60076020525f908152604090205481565b348015610315575f5ffd5b505f546001600160a01b03166102b2565b348015610331575f5ffd5b5061018b6106ee565b61017461075d565b34801561034d575f5ffd5b506003546102b2906001600160a01b031681565b34801561036c575f5ffd5b5061017461037b3660046116bc565b6109c4565b34801561038b575f5ffd5b5061017461039a36600461170d565b610b4f565b3480156103aa575f5ffd5b506101746110c3565b3480156103be575f5ffd5b506004546102b2906001600160a01b031681565b3480156103dd575f5ffd5b506101746103ec3660046116bc565b61110e565b3480156103fc575f5ffd5b5061017461040b3660046116bc565b611390565b34801561041b575f5ffd5b5061017461042a3660046116d3565b6113ec565b610437611426565b60025460405163a9059cbb60e01b8152336004820152602481018390526001600160a01b039091169063a9059cbb906044016020604051808303815f875af1158015610485573d5f5f3e3d5ffd5b505050506040513d601f19601f820116820180604052508101906104a991906117bc565b5050565b6104b5611426565b6107d08111156105045760405162461bcd60e51b81526020600482015260156024820152744665652063616e6e6f74206578636565642032302560581b60448201526064015b60405180910390fd5b600655565b610511611426565b600380546001600160a01b0319166001600160a01b0392909216919091179055565b61053b611426565b6002546004805460405163a9059cbb60e01b81526001600160a01b0391821692810192909252602482018490529091169063a9059cbb906044016020604051808303815f875af1158015610591573d5f5f3e3d5ffd5b505050506040513d601f19601f820116820180604052508101906105b591906117bc565b6106015760405162461bcd60e51b815260206004820152601e60248201527f4661696c656420746f207472616e7366657220746f207472656173757279000060448201526064016104fb565b50565b5f6005548261061391906117eb565b92915050565b5f5f5f6005548461062a9190611816565b90506127106006548261063d91906117eb565b6106479190611816565b91506106538282611829565b925050915091565b610663611426565b6001600160a01b0381166106b95760405162461bcd60e51b815260206004820152601860248201527f496e76616c69642074726561737572792061646472657373000000000000000060448201526064016104fb565b600480546001600160a01b0319166001600160a01b0392909216919091179055565b6106e3611426565b6106ec5f611452565b565b6002546040516370a0823160e01b81523060048201525f916001600160a01b0316906370a0823190602401602060405180830381865afa158015610734573d5f5f3e3d5ffd5b505050506040513d601f19601f82011682018060405250810190610758919061183c565b905090565b6107656114a1565b5f34116107b45760405162461bcd60e51b815260206004820152601a60248201527f4d7573742073656e642045544820746f2062757920636869707300000000000060448201526064016104fb565b5f600554346107c391906117eb565b90505f81116108075760405162461bcd60e51b815260206004820152601060248201526f105b5bdd5b9d081d1bdbc81cdb585b1b60821b60448201526064016104fb565b6002546040516370a0823160e01b815230600482015282916001600160a01b0316906370a0823190602401602060405180830381865afa15801561084d573d5f5f3e3d5ffd5b505050506040513d601f19601f82011682018060405250810190610871919061183c565b10156108bf5760405162461bcd60e51b815260206004820152601b60248201527f4e6f7420656e6f75676820636869707320696e2072657365727665000000000060448201526064016104fb565b60025460405163a9059cbb60e01b8152336004820152602481018390526001600160a01b039091169063a9059cbb906044016020604051808303815f875af115801561090d573d5f5f3e3d5ffd5b505050506040513d601f19601f8201168201806040525081019061093191906117bc565b6109785760405162461bcd60e51b81526020600482015260186024820152774661696c656420746f207472616e7366657220636869707360401b60448201526064016104fb565b60408051348152602081018390524281830152905133917f532c25a5cde4237dcfa5968ba7ded42e8889c3b8dbb41d657500b610f3f6ad0c919081900360600190a2506106ec60018055565b6109cc611426565b5f8111610a1b5760405162461bcd60e51b815260206004820152601d60248201527f416d6f756e74206d7573742062652067726561746572207468616e203000000060448201526064016104fb565b80471015610a645760405162461bcd60e51b81526020600482015260166024820152754e6f7420656e6f756768204554482062616c616e636560501b60448201526064016104fb565b6004546040515f916001600160a01b03169083908381818185875af1925050503d805f8114610aae576040519150601f19603f3d011682016040523d82523d5f602084013e610ab3565b606091505b5050905080610b045760405162461bcd60e51b815260206004820152601e60248201527f4661696c656420746f2073656e642045544820746f207472656173757279000060448201526064016104fb565b600454604080518481524260208201526001600160a01b03909216917f241d26202ece0e96f169c3ab6b0d540776434219c78f5727afa20c32cf367a29910160405180910390a25050565b610b576114a1565b5f8611610ba65760405162461bcd60e51b815260206004820152601d60248201527f4c612061707565737461206465626520736572206d61796f722061203000000060448201526064016104fb565b610bb18660056117eb565b6002546040516370a0823160e01b81523060048201526001600160a01b03909116906370a0823190602401602060405180830381865afa158015610bf7573d5f5f3e3d5ffd5b505050506040513d601f19601f82011682018060405250810190610c1b919061183c565b1015610c755760405162461bcd60e51b8152602060048201526024808201527f4c612062616e6361206e6f207469656e6520666f6e646f7320737566696369656044820152636e74657360e01b60648201526084016104fb565b335f8181526007602090815260408083205481516bffffffffffffffffffffffff19606096871b811682860152603482018d9052605482018c9052607482018b905289151560f81b609483015260958201929092523090951b1660b5850152805180850360a901815260c9909401905282519201919091207f19457468657265756d205369676e6564204d6573736167653a0a3332000000008252601c819052603c82209091505f610d5c8286868080601f0160208091040260200160405190810160405280939291908181526020018383808284375f920191909152506114cb92505050565b6003549091506001600160a01b03808316911614610dc75760405162461bcd60e51b815260206004820152602260248201527f4669726d6120696e76616c696461206f206461746f73206d616e6970756c61646044820152616f7360f01b60648201526084016104fb565b5050335f9081526007602052604081208054925090610de583611853565b90915550506002546040516323b872dd60e01b8152336004820152306024820152604481018890526001600160a01b03909116906323b872dd906064016020604051808303815f875af1158015610e3e573d5f5f3e3d5ffd5b505050506040513d601f19601f82011682018060405250810190610e6291906117bc565b610eae5760405162461bcd60e51b815260206004820152601760248201527f46616c6c6f20616c20636f62726172206170756573746100000000000000000060448201526064016104fb565b335f81815260076020908152604080832054905192938493606493610efb9342939290910192835260609190911b6bffffffffffffffffffffffff19166020830152603482015260540190565b604051602081830303815290604052805190602001205f1c610f1d919061186b565b6032118915151491505f90508082156110475760be8815610f61575f610f448a600a6117eb565b90506032811115610f53575060325b610f5d818361187e565b9150505b6064610f6d828c6117eb565b610f779190611816565b92508615610f8f57610f89888461187e565b92508791505b60025460405163a9059cbb60e01b8152336004820152602481018590526001600160a01b039091169063a9059cbb906044016020604051808303815f875af1158015610fdd573d5f5f3e3d5ffd5b505050506040513d601f19601f8201168201806040525081019061100191906117bc565b6110455760405162461bcd60e51b815260206004820152601560248201527446616c6c6f20616c207061676172207072656d696f60581b60448201526064016104fb565b505b337f4d0e541c81613fedc3cccc0f2a9376077737d3fbbf2d1119547eac7ca3fc0572848481611076575f611081565b6110818c600161187e565b6040805193151584526020840192909252908201526060810184905242608082015260a00160405180910390a25050506110ba60018055565b50505050505050565b6110cb611426565b4780610a645760405162461bcd60e51b81526020600482015260126024820152714e6f2045544820746f20776974686472617760701b60448201526064016104fb565b6111166114a1565b5f81116111655760405162461bcd60e51b815260206004820152601d60248201527f4d7573742073656c6c206174206c6561737420736f6d6520636869707300000060448201526064016104fb565b5f600554826111749190611816565b90505f6127106006548361118891906117eb565b6111929190611816565b90505f61119f8284611829565b9050804710156111f15760405162461bcd60e51b815260206004820152601960248201527f4e6f7420656e6f7567682045544820696e20726573657276650000000000000060448201526064016104fb565b6002546040516323b872dd60e01b8152336004820152306024820152604481018690526001600160a01b03909116906323b872dd906064016020604051808303815f875af1158015611245573d5f5f3e3d5ffd5b505050506040513d601f19601f8201168201806040525081019061126991906117bc565b6112b05760405162461bcd60e51b81526020600482015260186024820152774661696c656420746f207472616e7366657220636869707360401b60448201526064016104fb565b6040515f90339083908381818185875af1925050503d805f81146112ef576040519150601f19603f3d011682016040523d82523d5f602084013e6112f4565b606091505b505090508061133a5760405162461bcd60e51b815260206004820152601260248201527108cc2d2d8cac840e8de40e6cadcc8408aa8960731b60448201526064016104fb565b604080518681526020810184905290810184905242606082015233907fea3adac6e9644ace5c8a03dfb63fff4c017bcf05764e1da1145d0fcfef9a88699060800160405180910390a25050505061060160018055565b611398611426565b5f81116113e75760405162461bcd60e51b815260206004820152601b60248201527f52617465206d7573742062652067726561746572207468616e2030000000000060448201526064016104fb565b600555565b6113f4611426565b6001600160a01b03811661141d57604051631e4fbdf760e01b81525f60048201526024016104fb565b61060181611452565b5f546001600160a01b031633146106ec5760405163118cdaa760e01b81523360048201526024016104fb565b5f80546001600160a01b038381166001600160a01b0319831681178455604051919092169283917f8be0079c531659141344cd1fd0a4f28419497f9722a3daafe3b4186f6b6457e09190a35050565b6002600154036114c457604051633ee5aeb560e01b815260040160405180910390fd5b6002600155565b5f5f5f5f6114d986866114f3565b9250925092506114e9828261153c565b5090949350505050565b5f5f5f835160410361152a576020840151604085015160608601515f1a61151c888285856115f4565b955095509550505050611535565b505081515f91506002905b9250925092565b5f82600381111561154f5761154f611891565b03611558575050565b600182600381111561156c5761156c611891565b0361158a5760405163f645eedf60e01b815260040160405180910390fd5b600282600381111561159e5761159e611891565b036115bf5760405163fce698f760e01b8152600481018290526024016104fb565b60038260038111156115d3576115d3611891565b036104a9576040516335e2f38360e21b8152600481018290526024016104fb565b5f80807f7fffffffffffffffffffffffffffffff5d576e7357a4501ddfe92f46681b20a084111561162d57505f915060039050826116b2565b604080515f808252602082018084528a905260ff891692820192909252606081018790526080810186905260019060a0016020604051602081039080840390855afa15801561167e573d5f5f3e3d5ffd5b5050604051601f1901519150506001600160a01b0381166116a957505f9250600191508290506116b2565b92505f91508190505b9450945094915050565b5f602082840312156116cc575f5ffd5b5035919050565b5f602082840312156116e3575f5ffd5b81356001600160a01b03811681146116f9575f5ffd5b9392505050565b8015158114610601575f5ffd5b5f5f5f5f5f5f5f60c0888a031215611723575f5ffd5b873561172e81611700565b9650602088013595506040880135945060608801359350608088013561175381611700565b925060a088013567ffffffffffffffff81111561176e575f5ffd5b8801601f81018a1361177e575f5ffd5b803567ffffffffffffffff811115611794575f5ffd5b8a60208284010111156117a5575f5ffd5b602082019350809250505092959891949750929550565b5f602082840312156117cc575f5ffd5b81516116f981611700565b634e487b7160e01b5f52601160045260245ffd5b8082028115828204841417610613576106136117d7565b634e487b7160e01b5f52601260045260245ffd5b5f8261182457611824611802565b500490565b81810381811115610613576106136117d7565b5f6020828403121561184c575f5ffd5b5051919050565b5f60018201611864576118646117d7565b5060010190565b5f8261187957611879611802565b500690565b80820180821115610613576106136117d7565b634e487b7160e01b5f52602160045260245ffdfea2646970667358221220d84e7e71a247d8a17ace5dc1494c8e273656c1a7abde808fd8763b4fa550079a64736f6c634300081c0033",
  "linkReferences": {},
  "deployedLinkReferences": {},
  "immutableReferences": {},
  "inputSourceName": "project/contracts/CasinoGame.sol",
  "buildInfoId": "solc-0_8_28-5c2953fb7d8e1a5d41b5a8ebcda9f165d3a5aedd"
}