{
  "_format": "hh3-artifact-1",
  "contractName": "CasinoGame",
  "sourceName": "contracts/CasinoGame.sol",
  "abi": [
    {
      "inputs": [
        {
          "internalType": "address",
          "name": "_tokenAddress",
          "type": "address"
        },
        {
          "internalType": "address",
          "name": "_oracleAddress",
          "type": "address"
        }
      ],
      "stateMutability": "nonpayable",
      "type": "constructor"
    },
    {
      "inputs": [],
      "name": "ECDSAInvalidSignature",
      "type": "error"
    },
    {
      "inputs": [
        {
          "internalType": "uint256",
          "name": "length",
          "type": "uint256"
        }
      ],
      "name": "ECDSAInvalidSignatureLength",
      "type": "error"
    },
    {
      "inputs": [
        {
          "internalType": "bytes32",
          "name": "s",
          "type": "bytes32"
        }
      ],
      "name": "ECDSAInvalidSignatureS",
      "type": "error"
    },
    {
      "inputs": [
        {
          "internalType": "address",
          "name": "owner",
          "type": "address"
        }
      ],
      "name": "OwnableInvalidOwner",
      "type": "error"
    },
    {
      "inputs": [
        {
          "internalType": "address",
          "name": "account",
          "type": "address"
        }
      ],
      "name": "OwnableUnauthorizedAccount",
      "type": "error"
    },
    {
      "inputs": [],
      "name": "ReentrancyGuardReentrantCall",
      "type": "error"
    },
    {
      "anonymous": false,
      "inputs": [
        {
          "indexed": true,
          "internalType": "address",
          "name": "player",
          "type": "address"
        },
        {
          "indexed": false,
          "internalType": "bool",
          "name": "won",
          "type": "bool"
        },
        {
          "indexed": false,
          "internalType": "uint256",
          "name": "amountWon",
          "type": "uint256"
        },
        {
          "indexed": false,
          "internalType": "uint256",
          "name": "streak",
          "type": "uint256"
        },
        {
          "indexed": false,
          "internalType": "uint256",
          "name": "karmaPoolReleased",
          "type": "uint256"
        },
        {
          "indexed": false,
          "internalType": "uint256",
          "name": "timestamp",
          "type": "uint256"
        }
      ],
      "name": "GameResult",
      "type": "event"
    },
    {
      "anonymous": false,
      "inputs": [
        {
          "indexed": true,
          "internalType": "address",
          "name": "previousOwner",
          "type": "address"
        },
        {
          "indexed": true,
          "internalType": "address",
          "name": "newOwner",
          "type": "address"
        }
      ],
      "name": "OwnershipTransferred",
      "type": "event"
    },
    {
      "inputs": [],
      "name": "casinoToken",
      "outputs": [
        {
          "internalType": "contract IERC20",
          "name": "",
          "type": "address"
        }
      ],
      "stateMutability": "view",
      "type": "function"
    },
    {
      "inputs": [
        {
          "internalType": "bool",
          "name": "choiceHeads",
          "type": "bool"
        },
        {
          "internalType": "uint256",
          "name": "betAmount",
          "type": "uint256"
        },
        {
          "internalType": "uint256",
          "name": "currentStreak",
          "type": "uint256"
        },
        {
          "internalType": "uint256",
          "name": "currentKarmaPool",
          "type": "uint256"
        },
        {
          "internalType": "bool",
          "name": "isKarmaReady",
          "type": "bool"
        },
        {
          "internalType": "bytes",
          "name": "signature",
          "type": "bytes"
        }
      ],
      "name": "flip",
      "outputs": [],
      "stateMutability": "nonpayable",
      "type": "function"
    },
    {
      "inputs": [
        {
          "internalType": "address",
          "name": "",
          "type": "address"
        }
      ],
      "name": "nonces",
      "outputs": [
        {
          "internalType": "uint256",
          "name": "",
          "type": "uint256"
        }
      ],
      "stateMutability": "view",
      "type": "function"
    },
    {
      "inputs": [],
      "name": "oracleAddress",
      "outputs": [
        {
          "internalType": "address",
          "name": "",
          "type": "address"
        }
      ],
      "stateMutability": "view",
      "type": "function"
    },
    {
      "inputs": [],
      "name": "owner",
      "outputs": [
        {
          "internalType": "address",
          "name": "",
          "type": "address"
        }
      ],
      "stateMutability": "view",
      "type": "function"
    },
    {
      "inputs": [],
      "name": "renounceOwnership",
      "outputs": [],
      "stateMutability": "nonpayable",
      "type": "function"
    },
    {
      "inputs": [
        {
          "internalType": "address",
          "name": "_newOracle",
          "type": "address"
        }
      ],
      "name": "setOracleAddress",
      "outputs": [],
      "stateMutability": "nonpayable",
      "type": "function"
    },
    {
      "inputs": [
        {
          "internalType": "address",
          "name": "newOwner",
          "type": "address"
        }
      ],
      "name": "transferOwnership",
      "outputs": [],
      "stateMutability": "nonpayable",
      "type": "function"
    },
    {
      "inputs": [
        {
          "internalType": "uint256",
          "name": "amount",
          "type": "uint256"
        }
      ],
      "name": "withdrawBankroll",
      "outputs": [],
      "stateMutability": "nonpayable",
      "type": "function"
    }
  ],
  "bytecode": "0x608060405234801561000f575f5ffd5b50604051610db9380380610db983398101604081905261002e916100fc565b338061005357604051631e4fbdf760e01b81525f600482015260240160405180910390fd5b61005c81610092565b5060018055600280546001600160a01b039384166001600160a01b0319918216179091556003805492909316911617905561012d565b5f80546001600160a01b038381166001600160a01b0319831681178455604051919092169283917f8be0079c531659141344cd1fd0a4f28419497f9722a3daafe3b4186f6b6457e09190a35050565b80516001600160a01b03811681146100f7575f5ffd5b919050565b5f5f6040838503121561010d575f5ffd5b610116836100e1565b9150610124602084016100e1565b90509250929050565b610c7f8061013a5f395ff3fe608060405234801561000f575f5ffd5b5060043610610090575f3560e01c80637ecebe00116100635780637ecebe00146100f45780638da5cb5b14610121578063a89ae4ba14610131578063b080887014610144578063f2fde38b14610157575f5ffd5b806319c76700146100945780634c69c00f146100a9578063715018a6146100bc57806371d05375146100c4575b5f5ffd5b6100a76100a2366004610a73565b61016a565b005b6100a76100b7366004610a8a565b6101e8565b6100a7610212565b6002546100d7906001600160a01b031681565b6040516001600160a01b0390911681526020015b60405180910390f35b610113610102366004610a8a565b60046020525f908152604090205481565b6040519081526020016100eb565b5f546001600160a01b03166100d7565b6003546100d7906001600160a01b031681565b6100a7610152366004610ac4565b610225565b6100a7610165366004610a8a565b61079e565b6101726107db565b60025460405163a9059cbb60e01b8152336004820152602481018390526001600160a01b039091169063a9059cbb906044016020604051808303815f875af11580156101c0573d5f5f3e3d5ffd5b505050506040513d601f19601f820116820180604052508101906101e49190610b73565b5050565b6101f06107db565b600380546001600160a01b0319166001600160a01b0392909216919091179055565b61021a6107db565b6102235f610807565b565b61022d610856565b5f86116102815760405162461bcd60e51b815260206004820152601d60248201527f4c612061707565737461206465626520736572206d61796f722061203000000060448201526064015b60405180910390fd5b61028c866005610ba2565b6002546040516370a0823160e01b81523060048201526001600160a01b03909116906370a0823190602401602060405180830381865afa1580156102d2573d5f5f3e3d5ffd5b505050506040513d601f19601f820116820180604052508101906102f69190610bb9565b10156103505760405162461bcd60e51b8152602060048201526024808201527f4c612062616e6361206e6f207469656e6520666f6e646f7320737566696369656044820152636e74657360e01b6064820152608401610278565b335f8181526004602090815260408083205481516bffffffffffffffffffffffff19606096871b811682860152603482018d9052605482018c9052607482018b905289151560f81b609483015260958201929092523090951b1660b5850152805180850360a901815260c9909401905282519201919091207f19457468657265756d205369676e6564204d6573736167653a0a3332000000008252601c819052603c82209091505f6104378286868080601f0160208091040260200160405190810160405280939291908181526020018383808284375f9201919091525061088092505050565b6003549091506001600160a01b038083169116146104a25760405162461bcd60e51b815260206004820152602260248201527f4669726d6120696e76616c696461206f206461746f73206d616e6970756c61646044820152616f7360f01b6064820152608401610278565b5050335f90815260046020526040812080549250906104c083610bd0565b90915550506002546040516323b872dd60e01b8152336004820152306024820152604481018890526001600160a01b03909116906323b872dd906064016020604051808303815f875af1158015610519573d5f5f3e3d5ffd5b505050506040513d601f19601f8201168201806040525081019061053d9190610b73565b6105895760405162461bcd60e51b815260206004820152601760248201527f46616c6c6f20616c20636f6272617220617075657374610000000000000000006044820152606401610278565b335f818152600460209081526040808320549051929384936064936105d69342939290910192835260609190911b6bffffffffffffffffffffffff19166020830152603482015260540190565b604051602081830303815290604052805190602001205f1c6105f89190610bfc565b6032118915151491505f90508082156107225760be881561063c575f61061f8a600a610ba2565b9050603281111561062e575060325b6106388183610c0f565b9150505b6064610648828c610ba2565b6106529190610c22565b9250861561066a576106648884610c0f565b92508791505b60025460405163a9059cbb60e01b8152336004820152602481018590526001600160a01b039091169063a9059cbb906044016020604051808303815f875af11580156106b8573d5f5f3e3d5ffd5b505050506040513d601f19601f820116820180604052508101906106dc9190610b73565b6107205760405162461bcd60e51b815260206004820152601560248201527446616c6c6f20616c207061676172207072656d696f60581b6044820152606401610278565b505b337f4d0e541c81613fedc3cccc0f2a9376077737d3fbbf2d1119547eac7ca3fc0572848481610751575f61075c565b61075c8c6001610c0f565b6040805193151584526020840192909252908201526060810184905242608082015260a00160405180910390a250505061079560018055565b50505050505050565b6107a66107db565b6001600160a01b0381166107cf57604051631e4fbdf760e01b81525f6004820152602401610278565b6107d881610807565b50565b5f546001600160a01b031633146102235760405163118cdaa760e01b8152336004820152602401610278565b5f80546001600160a01b038381166001600160a01b0319831681178455604051919092169283917f8be0079c531659141344cd1fd0a4f28419497f9722a3daafe3b4186f6b6457e09190a35050565b60026001540361087957604051633ee5aeb560e01b815260040160405180910390fd5b6002600155565b5f5f5f5f61088e86866108aa565b92509250925061089e82826108f3565b50909150505b92915050565b5f5f5f83516041036108e1576020840151604085015160608601515f1a6108d3888285856109ab565b9550955095505050506108ec565b505081515f91506002905b9250925092565b5f82600381111561090657610906610c35565b0361090f575050565b600182600381111561092357610923610c35565b036109415760405163f645eedf60e01b815260040160405180910390fd5b600282600381111561095557610955610c35565b036109765760405163fce698f760e01b815260048101829052602401610278565b600382600381111561098a5761098a610c35565b036101e4576040516335e2f38360e21b815260048101829052602401610278565b5f80807f7fffffffffffffffffffffffffffffff5d576e7357a4501ddfe92f46681b20a08411156109e457505f91506003905082610a69565b604080515f808252602082018084528a905260ff891692820192909252606081018790526080810186905260019060a0016020604051602081039080840390855afa158015610a35573d5f5f3e3d5ffd5b5050604051601f1901519150506001600160a01b038116610a6057505f925060019150829050610a69565b92505f91508190505b9450945094915050565b5f60208284031215610a83575f5ffd5b5035919050565b5f60208284031215610a9a575f5ffd5b81356001600160a01b0381168114610ab0575f5ffd5b9392505050565b80151581146107d8575f5ffd5b5f5f5f5f5f5f5f60c0888a031215610ada575f5ffd5b8735610ae581610ab7565b96506020880135955060408801359450606088013593506080880135610b0a81610ab7565b925060a088013567ffffffffffffffff811115610b25575f5ffd5b8801601f81018a13610b35575f5ffd5b803567ffffffffffffffff811115610b4b575f5ffd5b8a6020828401011115610b5c575f5ffd5b602082019350809250505092959891949750929550565b5f60208284031215610b83575f5ffd5b8151610ab081610ab7565b634e487b7160e01b5f52601160045260245ffd5b80820281158282048414176108a4576108a4610b8e565b5f60208284031215610bc9575f5ffd5b5051919050565b5f60018201610be157610be1610b8e565b5060010190565b634e487b7160e01b5f52601260045260245ffd5b5f82610c0a57610c0a610be8565b500690565b808201808211156108a4576108a4610b8e565b5f82610c3057610c30610be8565b500490565b634e487b7160e01b5f52602160045260245ffdfea26469706673582212200a1537b04ffcf828003b5436cc3bf6e621299ae821c123b145a59050b1ce0a3d64736f6c634300081c0033",
  "linkReferences": {},
  "deployedLinkReferences": {},
  "immutableReferences": {},
  "inputSourceName": "project/contracts/CasinoGame.sol",
  "buildInfoId": "solc-0_8_28-ff8204664e82c3ad0f76637243e9610137cdca2f"
}